:020000040800F2
:10000000FCFF0020411A0000391A0000391A0000D4
:10001000391A0000391A0000391A0000391A000094
:10002000391A0000391A0000391A0000391A000084
:10003000391A0000391A0000391A0000391A000074
:10004000391A0000391A0000391A0000391A000064
:10005000391A0000391A0000391A0000391A000054
:10006000391A0000391A0000391A0000391A000044
:10007000391A0000391A0000391A0000391A000034
:10008000391A0000391A0000391A0000391A000024
:10009000391A0000391A0000391A0000391A000014
:1000A000391A0000391A0000391A0000391A000004
:1000B000391A0000391A0000391A0000391A0000F4
:1000C000391A0000391A0000391A0000391A0000E4
:1000D000391A0000391A0000391A0000391A0000D4
:1000E000391A0000391A0000391A0000391A0000C4
:1000F000391A0000391A0000391A0000391A0000B4
:10010000391A0000391A0000391A0000391A0000A3
:10011000391A0000391A0000391A0000391A000093
:10012000391A0000391A0000391A0000391A000083
:10013000391A0000391A0000391A0000391A000073
:10014000391A0000391A0000391A0000391A000063
:1001500081B0194900EA0101084600220EE004209E
:1001600022E0082020E010201EE020201CE040209B
:100170001AE0802018E040F2001015E00F49884294
:10018000EDD00F498842ECD00E498842EBD00E49A1
:100190008842EAD00D498842E9D00D498842E8D02A
:1001A0000C498842E7D010460B49096841EA000231
:1001B00009490A6001B0704700FCFFFF00080140D8
:1001C000000C0140001001400014014000180140E3
:1001D000001C0140002001401810024081B0CDF801
:1001E00000E08CB21546774B00EA03031E46184622
:1001F000FFF7AEFFB4F1FF0F0CD1734B9D4203D15B
:100200004FF033333360D9E0422D03D14FF0443304
:100210003360D3E04FF6FF739C4214D16A4B9D428A
:1002200007D14FF033333360341D4FF03333236045
:10023000C4E0422D07D14FF044333360341D4FF0FA
:1002400044332360BAE00021002005F001030BB124
:1002500000211DE005F0020333B105F4C0730BB1BA
:10026000082100E0042113E005F0040333B105F098
:1002700020030BB1042100E0002109E005F0080390
:1002800033B105F020030BB10C2100E00821FFE79A
:100290004E4B05EA03030BB1032009E005F400739C
:1002A0000BB1022004E005F480630BB10120FFE7ED
:1002B00005F00C030BB10143FFE704F0FF039BB211
:1002C000002B3BD0376800201FFA84F832462E46B8
:1002D00008282CD24FF0010303FA00F408EA0403C3
:1002E000A34222D185004FF00F03AB40DB4307EA66
:1002F000030401FA05F344EA03031D4606F481737F
:10030000B3F5817F05D102F214044FF0010383405D
:10031000236006F08203822B05D102F210044FF015
:100320000103834023602F46FFE7401CD0E717609E
:100330001FFA88F00F463146164602E00F4629465E
:10034000A0B2B0F1FF0F39D9331DD3F800800022DD
:10035000082A30D202F208044FF0010303FA04F431
:1003600000EA0403A34224D195004FF00F03AB40F1
:10037000DB4308EA030807FA05F348EA030801F437
:100380008173B3F5817F07D106F2140502F20804E8
:100390004FF00103A3402B6001F08203822B07D1B1
:1003A00006F2100502F208044FF00103A3402B608F
:1003B000FFE7521CCCE7331DC3F80080DDF800E0F6
:1003C00001B0704700FCFFFF14000800000808009F
:1003D00081B000F218010A68C2F3400181F0010106
:1003E000C9B2C8B201B0704781B000F214010A6806
:1003F00000F218010968090442EA0101084601B047
:100400007047FFFF01490860704700BFA481224286
:1004100001490860704700BFA0812242014908607D
:10042000704700BF9401214201490860704700BF36
:100430009C81214201490860704700BF9881214298
:1004400001490860704700BFA88122420149086045
:10045000704700BFB481224201490860704700BF65
:100460008801224201490860704700BF9001214283
:1004700001490860704700BFA80122420149086095
:10048000704700BF8001214201490860704700BFEA
:10049000B001224201490860704700BFAC0122420E
:1004A00001490860704700BF9881214201490860F6
:1004B000704700BF9481224201490860704700BF25
:1004C0009881224281B0CDF800E00B46FFF78CFF07
:1004D00000EA03029A4240F2000200D10122D0B2A7
:1004E000DDF800E001B0704781B0CDF800E04FF0DA
:1004F00000021949884207D118490B6818490A684F
:1005000018490A601C460BE01749884207D1174971
:100510000B6817490A6813490A601C4600E0144634
:1005200014490C6003461846FFF752FF70B9114991
:10053000096851B12CB905200A4C2468A047002055
:1005400005E0611E08460446FFE7ECE70120DDF800
:1005500000E001B0704700BF005400408800002058
:10056000C8000020C4000020005800408C0000207B
:10057000CC0000209000002001490860704700BFB7
:100580009C81214201490860704700BFAC81224232
:1005900001490860704700BFA80122420149086074
:1005A000704700BFB881224201490860704700BF10
:1005B0008C01224201490860704700BFB08122428D
:1005C00001490860704700BFB0012242014908603C
:1005D000704700BFAC01224201480068704700BF6D
:1005E000C000002083B0CDF800E000F0FF031A093E
:1005F000104603F00F02134614E0194A02921FE05E
:10060000184A02921CE0184A029219E0174A029214
:1006100016E0174A029213E0164A029210E0164AB8
:1006200002920DE00028E8D00128E9D00228EAD0A3
:100630000328EBD00428ECD00528EDD00628EED016
:10064000012212B29A40ADF8042002980A46BDF881
:100650000410FFF7C3FDDDF800E003B0704700BFF2
:1006600000080140000C014000100140001401404E
:1006700000180140001C01400020014081B00268C8
:10068000C2F3401101B9FAE7011D096888B201B04F
:100690007047FFFF81B00168C1F3801001B070475F
:1006A00081B00168C1F3401001B0704783B0CDF84C
:1006B00000E003464FF0000026498B4206D1264950
:1006C0000C6826490A6826490A600BE025498B42D6
:1006D00007D12549086825490A6821490A60044666
:1006E00000E0044622490C60019402931846FFF78B
:1006F000FBFE029B019C10B94FF6FF7025E0012222
:10070000196862F30821196003F214010A68C2F340
:10071000402111B14FF6FF7017E025461C461549E0
:100720002046FFF7CFFE78B91149096859B135B9AC
:1007300006200B4C2468A0474FF6FF7005E0691EA9
:1007400008460546FFE7EAE70020DDF800E003B0D1
:10075000704700BF0054004088000020C8000020FF
:10076000C4000020005800408C000020CC00002075
:10077000900000200100030081B0CDF800E00122CC
:1007800052B23E490A6000F268010B686FF00061E6
:1007900003EA0102144603F00061C90E0B4602F0A1
:1007A0000041B1F1004F02D135490A6801E03549F5
:1007B0000A6804F47021090C0E464FF6FF7104EA32
:1007C00001010D4604F44011B1F5401F0DD16FF049
:1007D000706102EA01010E462A490A686FF07061F1
:1007E0000A4028490A60324616E004F48011B1F547
:1007F000801F09D14FF00301B140C94302EA010152
:1008000041F070610A4607E0610D090105FA01F146
:10081000C9430A4042F070622BB1610D090105FA2B
:1008200001F10A43FFE704F00041B1F1004F02D1AA
:1008300013490A6001E013490A6040F2000A814648
:100840004FEA8A0109EB01010968B1F1FF3F10D0BD
:1008500009F134014FEA8A03C91809680A4609EB0D
:100860000301096808461146FFF7BCFE0AF1010AB8
:10087000E6E7DDF800E001B0704700BF0003424248
:100880001C0001400400014082B0CDF800E00346A6
:1008900019460191FFF7A0FE40F2E83100FB01F29A
:1008A00001990A601F490978C1F30311C8B21E49B2
:1008B00009180878C0B21A1D1968C1401160194999
:1008C0000988C1F3022188B2174909180878C0B213
:1008D00003F20802191D0968C14011601149098815
:1008E000C1F3C22188B2104909180878C0B203F2D6
:1008F0000C02191D0968C14011600A490988C1F339
:10090000813188B2094909180978C8B203F2100286
:1009100003F20C010968B1FBF0F11160DDF800E0B1
:1009200002B07047041002403C1E00007A1800001C
:1009300082B0CDF800E0029E4FF00005564CA04278
:1009400006D1564C2768564C2568564C25600AE05F
:10095000554CA04206D1554C2768554C2568514C42
:10096000256000E02F46534C276000F210054C0034
:10097000A4B22C60B9460746904635461E464E49FD
:100980003846FFF79FFD88B94A4C24686CB1B9F12D
:10099000000F06D10420434C2468A0474FF6FF7097
:1009A00076E0A9F101008146FFE7E8E70020019722
:1009B00029463746019E7C1EA04226D206F210052B
:1009C00008EB000424782C603A4CD4F8009082465E
:1009D0000D463A493046FFF775FD88B9354C246815
:1009E0006CB1B9F1000F06D104202E4C2468A04749
:1009F0004FF6FF704CE0A9F101008146FFE7E8E700
:100A00000AF1010420462946D5E706F2100508EB55
:100A1000000424782C60274C27680D46284930466E
:100A2000FFF750FD70B9234C246854B137B9042046
:100A30001C4C2468A0474FF6FF7029E0781E07463B
:100A4000FFE7EBE7012D05D10125346865F3492463
:100A500034601CE00125346865F308243460154CCB
:100A60002768354617492846FFF72CFD78B9114C01
:100A700024685CB137B904200A4C2468A0474FF6BB
:100A8000FF7005E07C1E20460746FFE7EAE70020EE
:100A9000DDF800E002B070470054004088000020FC
:100AA000C8000020C4000020005800408C00002036
:100AB000CC0000209000002082000700800007008A
:100AC000840007000100030081B0CDF800E0034876
:100AD000FFF7E0FDDDF800E001B0704700380140AD
:100AE00081B0CDF800E00348FFF7DAFDDDF800E063
:100AF00001B070470044004081B0CDF800E00348E9
:100B0000FFF7BCFDDDF800E001B070470044004095
:100B100088B0CDF800E00E46554B98420DD1012427
:100B200064B2544B1C60544C544B1C60544C554B99
:100B30001C60554C554B1C600FE0554B98420CD136
:100B4000012464B2534B1C60534C4C4B1C60534CFF
:100B50004C4B1C60524C4D4B1C6001960290104651
:100B6000FFF70AFE0298019E031D1B689CB26FF0FE
:100B70003F0304EA03039DB203AB01901846FFF75D
:100B800083FE0198059F059C464BB4FBF3F399B295
:100B90009BB245EA0304A4B2031D1C600024036851
:100BA00064F30003036000223F4B9E4212D873009F
:100BB000B7FBF3F4A4B2042C02D204231C46FFE7D3
:100BC00042EA04039AB200F220044B1C9BB2236059
:100BD00091B23FE0032306FB03F4B7FBF4F31FFAE3
:100BE00083F8192306FB03F5B7FBF5F31FFA83F926
:100BF00008FB04F409FB05F33C1BFB1A9C4205D2DD
:100C000003237343B7FBF3F4A4B206E01923734341
:100C1000B7FBF3F4A4B244F4804440F6FF7304EA53
:100C2000030313B944F00104FFE744F400439BB20B
:100C30001A4392B200F2200540F22C1301FB03F498
:100C4000A4B240F2E833B4FBF3F39BB25B1C9BB25B
:100C50002B6091B200F21C03196000230360012491
:100C6000036864F300030360DDF800E008B0704738
:100C700000540040D403424279100000D00000200C
:100C8000FFFFFFFFD4000020BD0F0000D8000020B0
:100C900000580040D8034242C50C0000FFFFFFFF90
:100CA000990F000040420F00A086010081B0CDF8EE
:100CB00000E00348FFF7E2FCDDF800E001B0704718
:100CC0000038014081B0CDF800E00348FFF7EEFCAA
:100CD000DDF800E001B070470058004089B0CDF861
:100CE00000E0834698B28C46BDF824100A9E04ACFE
:100CF000ADF80410ADF808002046FFF7C5FDBDF8BB
:100D00000800BDF80410644CA34512D101256DB252
:100D1000624C2560624D634C2560634D634C2560D9
:100D2000634D644C2560644D644C2560079C0394BE
:100D300056E0634CA34512D101256DB2614C25608C
:100D4000614D584C2560614D584C2560604D594CA3
:100D50002560604D594C2560069C039440E05E4C34
:100D6000A34512D101256DB25C4C25605C4D4D4C04
:100D700025605C4D4D4C25605B4D4E4C25605B4DB8
:100D80004E4C2560069C03942AE0594CA34512D191
:100D900001256DB2574C2560574D424C2560574D8B
:100DA000424C2560564D434C2560564D434C2560C2
:100DB000069C039414E0544CA34511D101256DB257
:100DC000524C2560524D374C2560524D374C2560B2
:100DD000514D384C2560514D384C2560069C03948C
:100DE000ADF80410ADF808003046FFF7C5FCBDF8BB
:100DF0000800BDF804100BF1100500242C600BF165
:100E000010052C680C432C600BF10C0500242C60A1
:100E100018B140F4806080B2FFE70BF10C052C683C
:100E200004432C600BF10C060125346865F34D3446
:100E300034600BF10C060125346865F3C30434609B
:100E40000BF10C060125346865F3820434600BF164
:100E5000140500242C60039D192465434FEA8C047B
:100E6000B5FBF4F76424B7FBF4F4260135096424D8
:100E70006C433C1B240104F232056424B5FBF4F4FA
:100E800004F00F0446EA04040BF10805A4B22C6038
:100E9000DDF800E009B070470038014038034242F5
:100EA00019120000DC000020AD0C000098000020AA
:100EB000210F000094000020C90A0000E00000207B
:100EC00000440040C403424249110000F90A0000F6
:100ED000E10A00002910000000480040C803424217
:100EE0009111000011100000F90F00009110000096
:100EF000004C0040CC03424251120000611000003F
:100F0000690F0000510F000000500040D003424222
:100F100035120000390F0000810F0000E10F0000C2
:100F200081B0CDF800E00348FFF7BAFBDDF800E040
:100F300001B070470038014081B0CDF800E00348AF
:100F4000FFF79CFBDDF800E001B070470050004067
:100F500081B0CDF800E00348FFF79CFBDDF800E02E
:100F600001B07047004C004081B0CDF800E003486C
:100F7000FFF796FBDDF800E001B07047004C004041
:100F800081B0CDF800E00348FFF78AFBDDF800E010
:100F900001B070470050004081B0CDF800E008B4C7
:100FA00013460A46C1B20448FFF7C2FC01B0DDF89F
:100FB00000E001B0704700BF0058004081B0CDF89C
:100FC00000E008B413460A46C1B20448FFF7B0FC7B
:100FD00001B0DDF800E001B0704700BF00540040F0
:100FE00081B0CDF800E00348FFF754FBDDF800E0E6
:100FF00001B070470050004081B0CDF800E00348D8
:10100000FFF74EFBDDF800E001B0704700480040FC
:1010100081B0CDF800E00348FFF730FBDDF800E0D9
:1010200001B070470048004081B0CDF800E00348AF
:10103000FFF730FBDDF800E001B0704700440040EE
:1010400081B0ADF800100146BDF800000B68C3F395
:10105000C01202B9FAE70A1D106001B07047FFFF25
:1010600081B0CDF800E00348FFF708FBDDF800E0B1
:1010700001B07047004C004081B0CDF800E003485B
:10108000FFF714FBDDF800E001B0704700540040AA
:1010900081B0CDF800E00348FFF7FCFADDF800E08E
:1010A00001B070470048004081B00A4681B200207C
:1010B0008DB21146052805D20B1820221A70401C4B
:1010C000C0B2F7E70B1800221A70401EC0B20C180D
:1010D0000A23B5FBF3F203FB125292B230322270B4
:1010E0000A22B5FBF2F292B295B202B902E0401EBA
:1010F000C0B2ECE701B0704782B0CDF800E040F23A
:101100000004ADF80440054C2468A047BDF9044034
:10111000044320B2DDF800E002B07047B8000020C0
:1011200081B0CDF800E0019D2C4610B408B493B214
:101130008AB201460348FFF7D1FD02B0DDF800E0B6
:1011400001B070470044004081B0CDF800E081B2AA
:101150000348FFF775FFDDF800E001B0704700BFFE
:101160000044004082B0CDF800E040F20004ADF849
:101170000440064C2468A047BDF9041041EA000071
:1011800000B2DDF800E002B0704700BFB4000020FC
:1011900081B0CDF800E081B20348FFF751FFDDF8E0
:1011A00000E001B0704700BF0048004081B0CDF8BA
:1011B00000E0019D2C4610B408B493B28AB20146F7
:1011C0000348FFF78BFD02B0DDF800E001B0704787
:1011D0000048004081B0CDF800E0019D2C4610B4DD
:1011E00008B493B28AB201460348FFF777FD02B014
:1011F000DDF800E001B070470038014081B0CDF863
:1012000000E00A4601460348FFF782FCDDF800E0F3
:1012100001B070470054004081B0CDF800E081B2C9
:101220000348FFF70DFFDDF800E001B0704700BF95
:101230000038014081B0CDF800E081B20348FFF7EB
:10124000FFFEDDF800E001B0704700BF0050004035
:1012500081B0CDF800E081B20348FFF7F1FEDDF880
:1012600000E001B0704700BF004C004081B0CDF8F5
:1012700000E00178CCB2A0B2034C2468A047002063
:10128000DDF800E001B07047B000002082B0CDF87A
:1012900000E001AC40EA01032370641C40EA020351
:1012A0002370FFF75FFF01AC054B1B78022221463C
:1012B000D8B20123FFF720FFDDF800E002B070474D
:1012C0008600002082B0CDF800E001A90870FFF789
:1012D00049FF01AA054909780123C8B21146012234
:1012E000FFF70AFFDDF800E002B07047860000203B
:1012F000026806490A60011D0A6805490A6000F291
:1013000008010A6803490A60704700BFB400002062
:10131000B8000020BC00002082B0CDF800E001A998
:10132000C0200870FFF71EFF01A9054800780123BF
:101330000122FFF7E1FEDDF800E002B0704700BFD8
:10134000860000207047FFFF012801D1802014E0B3
:10135000022801D1402010E0032801D100200CE038
:10136000042801D1202008E0052801D1602004E0F4
:10137000062801D1A02000E08020704781B0CDF880
:1013800000E0016808460449FFF738FF0020DDF857
:1013900000E001B0704700BF2C1C000082B0CDF807
:1013A00000E04B421BB20A2212B293FBF2F402FBA2
:1013B00014340A2212B293FBF2F2D1B201ABE2B2C0
:1013C00042F01002D2B240EA02021A705B1C40EAFC
:1013D00001021A70FFF7C6FE01AB064A12781946E1
:1013E0000123D0B20222FFF787FEDDF800E002B051
:1013F000704700BF8600002081B0CDF800E0016892
:1014000008460449FFF7FAFE0020DDF800E001B0CD
:10141000704700BF2C1C000081B0CDF800E00E46E4
:10142000002183B2002805DA0121404280B280B257
:101430008FB201E098B28FB23146FFF735FE062138
:101440003446B8B2002908D963184A1E92B2A218CD
:1014500012781A70491E89B2F4E72022227070B106
:10146000002081B2204642181278202A02D1491C5D
:1014700089B2F8E74A1E92B283182D221A70DDF85D
:1014800000E001B07047FFFF81B0CDF800E00949EE
:1014900002B440F2000340F2000240F20001FFF704
:1014A0003FFE01B0044A05490A600020DDF800E073
:1014B00001B07047701D000049110000B00000200D
:1014C00081B0CDF800E0094902B440F2000340F2D7
:1014D000000240F20001FFF723FE01B0044A054973
:1014E0000A600020DDF800E001B07047701D0000C8
:1014F00049110000B000002081B0CDF800E009499A
:1015000002B440F2000340F2000240F20001FFF793
:1015100061FE01B0044A05490A600020DDF800E0E0
:1015200001B07047981C000019120000B0000020A4
:1015300081B0CDF800E0094902B440F2000340F266
:10154000000240F20001FFF731FE01B0044A0549F4
:101550000A600020DDF800E001B07047041D0000C3
:1015600091110000B000002081B0CDF800E01C48CF
:101570000078012830D11B48007801282CD01A4867
:101580000078FFF7E1FE19490870194991F9001038
:10159000FFF704FF1748012100F034F812480078E3
:1015A0001549FFF739FF0121134800F02BF81348C4
:1015B000012100F027F80E4890F900000E49FFF7CE
:1015C0002BFF01210C4800F01DF80D48022100F00E
:1015D00019F8002102480170DDF800E001B0704701
:1015E0003200002000000020310000208500002093
:1015F00033000020640000209C00002071000020C7
:101600008100002083B0CDF800E0024610460D2294
:101610008DF808200A228DF809201FE0FFF726FE2A
:1016200023E002782AB10190FFF720FE0198401CC8
:10163000F7E71AE002782AB10190FFF717FE019848
:10164000401CF7E702AA1046FFF710FE0DF1090251
:101650001046FFF70BFE08E0062007E00029DDD06A
:101660000129DED00229E5D0F6E70020DDF800E010
:1016700003B0704781B0CDF800E08B4609E05846D2
:10168000FFF7BAFE0AE05846FFF778FE06E00120B1
:1016900004E00028F3D00128F5D0F8E7DDF800E0F9
:1016A00001B07047A086010081B0CDF800E04EF691
:1016B0007F67C0F2360700BF00BF7F1EFDD100BFAD
:1016C00000BF00BFFFF728FE002200218020FFF7A7
:1016D000DDFD002200214020FFF7D8FD002200217F
:1016E0000020FFF7D3FD002200212020FFF7CEFDD0
:1016F000002200216020FFF7C9FD00220021A02068
:10170000FFF7C4FD00220021C020FFF7BFFDF82035
:10171000FFF7D8FDDDF800E001B0704781B0CDF8EB
:1017200000E011E00846FFF703FF16E00846FFF768
:10173000ABFE12E00846FFF7DFFE0EE00846FFF7BB
:10174000BFFE0AE0012008E00028EBD00128EDD020
:101750002028EFD03028F1D0F4E7DDF800E001B028
:101760007047FFFF81B0CDF800E00E48007850B917
:1017700001210C480170F920FFF7A4FD0A4802215D
:10178000FFF740FF09E0002106480170F820FFF74D
:1017900099FD06480221FFF735FFDDF800E001B0B2
:1017A000704700BF0000002001000020180000204A
:1017B00081B0CDF800E00446054B1A700846FFF7EB
:1017C00097FD2046FFF7BEFDDDF800E001B0704751
:1017D0008600002081B01548006840F001011348E0
:1017E0000160134913480160104801681248014024
:1017F0000E4801600D4801686FF4802001400B48DD
:1018000001600C4801686FF4FE0001400948016066
:10181000064801686FF0A0500140044801604FF095
:1018200000010648016001B0704700BF001002408F
:101830000000FFF004100240FFFFF6FE2C100240F3
:1018400081B04FF000094FF0000CBDEB0A0F04DC33
:10185000BDEB0B0F01DBD446EA464BF8049BBBEB18
:101860000A0FFAD1BCEB0A0F05DDE246D9F800B049
:101870000BF1040BF1E701B0704702040608FFFF0B
:1018800081B0CDF800E04EF67F67C0F2360700BFAA
:1018900000BF7F1EFDD100BF00BF00BF0E48014644
:1018A0000020FFF7E7FE42F280512020FFF736FFCD
:1018B0000A480221FFF7A6FE44F67F77C0F212071E
:1018C0007F1EFDD100BF00BF00BF00BF00BFDDF81D
:1018D00000E001B0704700BFA41600004E000020D9
:1018E00081B0CDF800E0462211491248FFF760FFB1
:1018F000FFF7DAFE10480221FFF784FE00220021E4
:101900008020FFF7C3FC002200214020FFF7BEFC2F
:1019100041F6FF27C0F2B7077F1EFDD100BF00BF11
:1019200000BF00BF00BFDDF800E001B0704700BF9E
:10193000581E0000DC1D00003400002081B0CDF8EE
:1019400000E02E4C2468A047C4B2002C00F0528066
:101950002B4C2468A047C0B240E02A490878401EBA
:10196000C0B20870012802D201212648017001216D
:10197000254801703CE023490878401CC0B208703B
:10198000062802D906211F48017001211E48017056
:101990002EE01E4991F90000401C40B2087000285A
:1019A00003DD002149B21948017001211648017078
:1019B0001EE0164A92F90000411E49B211706FF004
:1019C0004E00814203DAB12149B210480170012171
:1019D0000D4801700CE0FFF7C5FE09E07A28BCD085
:1019E0007828C8D02B28D4D02D28E2D06D28F2D06A
:1019F000FFF7BAFDDDF800E001B070479400002069
:101A00009800002031000020320000203300002028
:101A100081B01CF8019B0BF8019BBBEB0A0FF8D1BE
:101A200001B0704781B002490248016001B07047BF
:101A300040190100C000002081B0FEE701B07047EE
:101A400000F00EF800F05CFAFFF7ECFF00F00AFA85
:101A5000FFF716FFFFF744FFFFF770FFFCE7FEE715
:101A600081B0CDF800E0464A464B474C47494BF61B
:101A70008030814206D94648006840F0020144485F
:101A8000016011E045F6C050814206D94048006827
:101A900040F001013E48016006E03D4801686FF0FA
:101AA000070001403A480160FFF794FE394803609F
:101AB00039480460394802EA00013948016002F0FF
:101AC000010040B119463648006800F002000028C5
:101AD00000D1F8E700E0194602F4803040B10B462F
:101AE0002F48006800F40030002800D1F8E700E03B
:101AF0000B4602F0805068B12948006840F08051E0
:101B0000274801602648006800F00050002800D1F6
:101B1000F8E7FFE702F0806078B12148006840F004
:101B200080611F48016011461A461D48006800F098
:101B30000060002800D1F8E701E011461A4601F0E4
:101B4000807070B11648006840F0807114480160E0
:101B500011461348006800F0007000B9F9E70A4622
:101B6000FFE70C48006800F00C01900000F00C004A
:101B7000814200D0F5E7DDF800E001B0704700BF1A
:101B80008100010502841D00440601004019010086
:101B900000200240041002402C100240FFFF0F0002
:101BA000001002400020416C6C206368616E6E651D
:101BB0006C73204D555445202121210020416C6C2F
:101BC000206368616E6E656C7320554E4D555445AB
:101BD0002021212100010000202D2D2D20535441D2
:101BE000525420455155414C495A4552202D2D2DD6
:101BF0002000202D2D2D2053797374656D20496EA2
:101C00006974202D2D2D2000204368616E6E656C57
:101C1000205B202000205D202D2D20566F6C756DDF
:101C200065205B2000205D2000FFFFFF1600000004
:101C300017000000FFFFFFFF000000000000000091
:101C40000000000000000000000000000000000094
:101C50000000000000000000000000000000000084
:101C60002808000028080000000000000000000014
:101C70000000000000000000000000000000000064
:101C80000000000000000000000000000000000054
:101C90000000000002000000090000000A0000002F
:101CA000FFFFFFFF00000000000000000000000038
:101CB0000000000000000000000000000000000024
:101CC00000000000000000000000000018080000F4
:101CD00018000000000000000000000000000000EC
:101CE00000000000000000000000000000000000F4
:101CF00000000000000000000000000000000000E4
:101D0000040000003800000039000000FFFFFFFF62
:101D100000000000000000000000000000000000C3
:101D200000000000000000000000000000000000B3
:101D3000000000000000000018080000180000006B
:101D40000000000000000000000000000000000093
:101D50000000000000000000000000000000000083
:101D60000000000000000000000000003000140827
:101D70003500000036000000FFFFFFFF00000000FC
:101D80000000000000000000000000000000000053
:101D90000000000000000000000000000000000043
:101DA00000000000180800001800000000000000FB
:101DB0000000000000000000000000000000000023
:101DC0000000000000000000000000000000000013
:101DD000000000000000000008000008650400008A
:101DE000590400004D040000710400009504000037
:101DF000890400007D040000410400000504000087
:101E0000110400003504000029040000FFFFFFFF5B
:101E1000FFFFFFFFFFFFFFFFFFFFFFFFFFFFFFFFD2
:101E2000FFFFFFFFFFFFFFFFFFFFFFFFFFFFFFFFC2
:101E3000FFFFFFFFFFFFFFFFFFFFFFFF00000000AE
:101E40000102030401020304060708090000000060
:101E5000000000000000000079100000BD0F00002D
:101E6000FFFFFFFF00B5DFF824B0DFF824A0DFF8A4
:101E700024C0FFF7CDFDDFF820B0DFF820A0DFF8A9
:101E800020C0FFF7C5FD00BD704700BF0000002067
:101E900085000020A41B0000880000209400002082
:101EA0004C1E0000FFFFFFFFFFFFFFFFFFFFFFFFD4
:101EB000FFFFFFFFFFFFFFFFFFFFFFFFFFFFFFFF32
:101EC000FFFFFFFFFFFFFFFFFFFFFFFFFFFFFFFF22
:101ED000FFFFFFFFFFFFFFFFFFFFFFFFFFFFFFFF12
:101EE000FFFFFFFFFFFFFFFFFFFFFFFFFFFFFFFF02
:101EF000FFFFFFFFFFFFFFFFFFFFFFFFFFFFFFFFF2
:101F000000B5DFF810B0DFF810A0FFF799FC00BDB6
:101F1000704700BF00000020E4000020FFFFFFFF2B
:00000001FF
